{
  "contractName": "TodoList",
  "abi": [
    {
      "inputs": [],
      "payable": false,
      "stateMutability": "nonpayable",
      "type": "constructor"
    },
    {
      "anonymous": false,
      "inputs": [
        {
          "indexed": false,
          "internalType": "uint256",
          "name": "id",
          "type": "uint256"
        },
        {
          "indexed": false,
          "internalType": "string",
          "name": "content",
          "type": "string"
        },
        {
          "indexed": false,
          "internalType": "bool",
          "name": "completed",
          "type": "bool"
        }
      ],
      "name": "TaskCreated",
      "type": "event"
    },
    {
      "constant": true,
      "inputs": [],
      "name": "taskCount",
      "outputs": [
        {
          "internalType": "uint256",
          "name": "",
          "type": "uint256"
        }
      ],
      "payable": false,
      "stateMutability": "view",
      "type": "function"
    },
    {
      "constant": true,
      "inputs": [
        {
          "internalType": "uint256",
          "name": "",
          "type": "uint256"
        }
      ],
      "name": "tasks",
      "outputs": [
        {
          "internalType": "uint256",
          "name": "id",
          "type": "uint256"
        },
        {
          "internalType": "string",
          "name": "content",
          "type": "string"
        },
        {
          "internalType": "bool",
          "name": "completed",
          "type": "bool"
        }
      ],
      "payable": false,
      "stateMutability": "view",
      "type": "function"
    },
    {
      "constant": false,
      "inputs": [
        {
          "internalType": "string",
          "name": "_content",
          "type": "string"
        }
      ],
      "name": "createTask",
      "outputs": [],
      "payable": false,
      "stateMutability": "nonpayable",
      "type": "function"
    }
  ],
  "bytecode": "0x60806040526000805534801561001457600080fd5b506100596040518060400160405280601181526020017f6c6561726e696e6720736f6c696469747900000000000000000000000000000081525061005e60201b60201c565b610248565b6000808154809291906001019190505550604051806060016040528060005481526020018281526020016000151581525060016000805481526020019081526020016000206000820151816000015560208201518160010190805190602001906100c99291906101a3565b5060408201518160020160006101000a81548160ff0219169083151502179055509050507f05d0fb833127fc08168556d0e7ca9554fc3f6bc843b3b7d2bf1c35aea6bab660600054826000604051808481526020018060200183151515158152602001828103825284818151815260200191508051906020019080838360005b83811015610164578082015181840152602081019050610149565b50505050905090810190601f1680156101915780820380516001836020036101000a031916815260200191505b5094505050505060405180910390a150565b828054600181600116156101000203166002900490600052602060002090601f016020900481019282601f106101e457805160ff1916838001178555610212565b82800160010185558215610212579182015b828111156102115782518255916020019190600101906101f6565b5b50905061021f9190610223565b5090565b61024591905b80821115610241576000816000905550600101610229565b5090565b90565b6104cc806102576000396000f3fe608060405234801561001057600080fd5b50600436106100415760003560e01c8063111002aa146100465780638d97767214610101578063b6cb58a5146101ba575b600080fd5b6100ff6004803603602081101561005c57600080fd5b810190808035906020019064010000000081111561007957600080fd5b82018360208201111561008b57600080fd5b803590602001918460018302840111640100000000831117156100ad57600080fd5b91908080601f016020809104026020016040519081016040528093929190818152602001838380828437600081840152601f19601f8201169050808301925050505050505091929192905050506101d8565b005b61012d6004803603602081101561011757600080fd5b810190808035906020019092919050505061031d565b604051808481526020018060200183151515158152602001828103825284818151815260200191508051906020019080838360005b8381101561017d578082015181840152602081019050610162565b50505050905090810190601f1680156101aa5780820380516001836020036101000a031916815260200191505b5094505050505060405180910390f35b6101c26103ec565b6040518082815260200191505060405180910390f35b6000808154809291906001019190505550604051806060016040528060005481526020018281526020016000151581525060016000805481526020019081526020016000206000820151816000015560208201518160010190805190602001906102439291906103f2565b5060408201518160020160006101000a81548160ff0219169083151502179055509050507f05d0fb833127fc08168556d0e7ca9554fc3f6bc843b3b7d2bf1c35aea6bab660600054826000604051808481526020018060200183151515158152602001828103825284818151815260200191508051906020019080838360005b838110156102de5780820151818401526020810190506102c3565b50505050905090810190601f16801561030b5780820380516001836020036101000a031916815260200191505b5094505050505060405180910390a150565b6001602052806000526040600020600091509050806000015490806001018054600181600116156101000203166002900480601f0160208091040260200160405190810160405280929190818152602001828054600181600116156101000203166002900480156103cf5780601f106103a4576101008083540402835291602001916103cf565b820191906000526020600020905b8154815290600101906020018083116103b257829003601f168201915b5050505050908060020160009054906101000a900460ff16905083565b60005481565b828054600181600116156101000203166002900490600052602060002090601f016020900481019282601f1061043357805160ff1916838001178555610461565b82800160010185558215610461579182015b82811115610460578251825591602001919060010190610445565b5b50905061046e9190610472565b5090565b61049491905b80821115610490576000816000905550600101610478565b5090565b9056fea265627a7a72315820b84aaa2c085366774f73b2ec42b1d3c2b162309b3bdf9d41620e7bd5ed943cee64736f6c634300050c0032",
  "source": "pragma solidity ^0.5.12;\n\ncontract TodoList {\n    uint256 public taskCount = 0;\n    struct Task {\n        uint256 id;\n        string content;\n        bool completed;\n    }\n\n    mapping(uint256 => Task) public tasks;\n\n    event TaskCreated(uint256 id, string content, bool completed);\n\n    constructor() public {\n        createTask(\"learning solidity\");\n    }\n\n    function createTask(string memory _content) public {\n        taskCount++;\n        tasks[taskCount] = Task(taskCount, _content, false);\n        emit TaskCreated(taskCount, _content, false);\n    }\n}\n",
  "sourcePath": "/Users/kup/Documents/kup/eth-todo-list/contracts/TodoList.sol",
  "compiler": {
    "name": "solc",
    "version": "0.5.12+commit.7709ece9.Emscripten.clang"
  },
  "schemaVersion": "3.0.19",
  "updatedAt": "2022-02-19T14:07:00.643Z",
  "networkType": "ethereum",
  "devdoc": {
    "methods": {}
  },
  "userdoc": {
    "methods": {}
  }
}